:100000000C9434000C943E000C943E000C943E0082
:100010000C943E000C943E000C943E000C943E0068
:100020000C943E000C943E000C943E000C943E0058
:100030000C943E000C943E000C943E000C943E0048
:100040000C943E000C943E000C943E000C943E0038
:100050000C943E000C943E000C943E000C943E0028
:100060000C943E000C943E0011241FBECFEFD8E04C
:10007000DEBFCDBF0E9440000C94C0020C94000073
:1000800086E084B981EA809380008AE080938100D1
:1000900082EB90E0909389008093880090938B008E
:1000A00080938A0081E080936F007894C12CD12CDA
:1000B00020EEE22E20E4F22E4601570120E030E04F
:1000C00040E251E4C501B4010E94380120E030E073
:1000D0004FE753E40E942F020E94AA017093890007
:1000E0006093880020E030E040E251E4C701B601AF
:1000F0000E94380120E030E04FE753E40E942F02D5
:100100000E94AA0170938B0060938A0084B1817071
:1001100084B9C4B1C870C4B98130A9F020E030E01E
:1001200040E85FE3C501B4010E942A0218168CF46E
:1001300020E030E040E85FE3C501B4010E94CB005D
:100140004B015C0106C0812C912C90EAA92E90E411
:10015000B92ECC2351F0C13009F0B0CFC12CD12C35
:1001600080EAE82E80E4F82EA9CF20E030E040E8D5
:100170005FE3C701B6010E942A0218160CF09ECF59
:1001800020E030E040E85FE3C701B6010E94CB0009
:100190006B017C0193CF5058BB27AA270E94E30034
:1001A0000C94F0010E94E20138F00E94E90120F075
:1001B00039F49F3F19F426F40C94DF010EF4E09516
:1001C000E7FB0C94D901E92F0E94010258F3BA17FA
:1001D000620773078407950720F079F4A6F50C945D
:1001E00023020EF4E0950B2EBA2FA02D0B01B901BE
:1001F00090010C01CA01A0011124FF27591B99F09D
:10020000593F50F4503E68F11A16F040A22F232FA8
:10021000342F4427585FF3CF469537952795A795F8
:10022000F0405395C9F77EF41F16BA0B620B730B9F
:10023000840BBAF09150A1F0FF0FBB1F661F771F10
:10024000881FC2F70EC0BA0F621F731F841F48F4C5
:10025000879577956795B795F7959E3F08F0B0CF4E
:100260009395880F08F09927EE0F97958795089535
:100270000E944C010C94F0010E94E90158F00E9488
:10028000E20140F029F45F3F29F00C94D9015111AB
:100290000C9424020C94DF010E94010268F399235C
:1002A000B1F3552391F3951B550BBB27AA27621772
:1002B0007307840738F09F5F5F4F220F331F441F7F
:1002C000AA1FA9F335D00E2E3AF0E0E832D09150B3
:1002D0005040E695001CCAF72BD0FE2F29D0660FA0
:1002E000771F881FBB1F261737074807AB07B0E8E3
:1002F00009F0BB0B802DBF01FF2793585F4F3AF0E9
:100300009E3F510578F00C94D9010C9424025F3F74
:10031000E4F3983ED4F3869577956795B795F7956E
:100320009F5FC9F7880F911D9695879597F9089556
:10033000E1E0660F771F881FBB1F621773078407F2
:10034000BA0720F0621B730B840BBA0BEE1F88F701
:10035000E09508950E94090288F09F5798F0B92F00
:100360009927B751B0F0E1F0660F771F881F991FEA
:100370001AF0BA95C9F714C0B13091F00E94230267
:10038000B1E008950C942302672F782F8827B85F77
:1003900039F0B93FCCF3869577956795B395D9F742
:1003A0003EF490958095709561957F4F8F4F9F4F4C
:1003B000089597F99F6780E870E060E008959FEFE7
:1003C00080EC089500240A941616170618060906EC
:1003D000089500240A9412161306140605060895BB
:1003E000092E0394000C11F4882352F0BB0F40F443
:1003F000BF2B11F460FF04C06F5F7F4F8F4F9F4F83
:10040000089557FD9058440F551F59F05F3F71F004
:100410004795880F97FB991F61F09F3F79F087956B
:100420000895121613061406551FF2CF4695F1DFF4
:1004300008C0161617061806991FF1CF8695710584
:10044000610508940895E894BB2766277727CB01B8
:1004500097F908950E949C0208F48FEF08950E9476
:1004600042020C94F0010E94E20138F00E94E9017E
:1004700020F0952311F00C94D9010C94DF01112484
:100480000C9424020E94010270F3959FC1F3950F12
:1004900050E0551F629FF001729FBB27F00DB11D08
:1004A000639FAA27F00DB11DAA1F649F6627B00D98
:1004B000A11D661F829F2227B00DA11D621F739F81
:1004C000B00DA11D621F839FA00D611D221F749F8F
:1004D0003327A00D611D231F849F600D211D822FD6
:1004E000762F6A2F11249F5750409AF0F1F08823FD
:1004F0004AF0EE0FFF1FBB1F661F771F881F91502A
:100500005040A9F79E3F510580F00C94D9010C94FE
:1005100024025F3FE4F3983ED4F386957795679580
:10052000B795F795E7959F5FC1F7FE2B880F911D53
:100530009695879597F90895990F0008550FAA0B7E
:10054000E0E8FEEF16161706E807F907C0F01216E6
:100550001306E407F50798F0621B730B840B950BE9
:1005600039F40A2661F0232B242B252B21F408953E
:100570000A2609F4A140A6958FEF811D811D0895DB
:04058000F894FFCF1D
:00000001FF
